{
  "_format": "hh-sol-artifact-1",
  "contractName": "POS",
  "sourceName": "contracts/POS.sol",
  "abi": [
    {
      "inputs": [
        {
          "internalType": "address",
          "name": "_swapContract",
          "type": "address"
        }
      ],
      "stateMutability": "nonpayable",
      "type": "constructor"
    },
    {
      "anonymous": false,
      "inputs": [
        {
          "indexed": true,
          "internalType": "address",
          "name": "previousOwner",
          "type": "address"
        },
        {
          "indexed": true,
          "internalType": "address",
          "name": "newOwner",
          "type": "address"
        }
      ],
      "name": "OwnershipTransferred",
      "type": "event"
    },
    {
      "anonymous": false,
      "inputs": [
        {
          "indexed": true,
          "internalType": "uint256",
          "name": "_sessionId",
          "type": "uint256"
        },
        {
          "indexed": true,
          "internalType": "address",
          "name": "_token",
          "type": "address"
        },
        {
          "indexed": false,
          "internalType": "address",
          "name": "_vault",
          "type": "address"
        }
      ],
      "name": "PaymentRequest",
      "type": "event"
    },
    {
      "inputs": [],
      "name": "VERSION",
      "outputs": [
        {
          "internalType": "uint256",
          "name": "",
          "type": "uint256"
        }
      ],
      "stateMutability": "view",
      "type": "function"
    },
    {
      "inputs": [],
      "name": "owner",
      "outputs": [
        {
          "internalType": "address",
          "name": "",
          "type": "address"
        }
      ],
      "stateMutability": "view",
      "type": "function"
    },
    {
      "inputs": [],
      "name": "renounceOwnership",
      "outputs": [],
      "stateMutability": "nonpayable",
      "type": "function"
    },
    {
      "inputs": [
        {
          "internalType": "uint256",
          "name": "_sessionId",
          "type": "uint256"
        },
        {
          "internalType": "bytes",
          "name": "paymentData",
          "type": "bytes"
        },
        {
          "internalType": "address",
          "name": "vaultAddress",
          "type": "address"
        },
        {
          "internalType": "address",
          "name": "paymentToken",
          "type": "address"
        }
      ],
      "name": "requestPayment",
      "outputs": [],
      "stateMutability": "payable",
      "type": "function"
    },
    {
      "inputs": [],
      "name": "swapContract",
      "outputs": [
        {
          "internalType": "address",
          "name": "",
          "type": "address"
        }
      ],
      "stateMutability": "view",
      "type": "function"
    },
    {
      "inputs": [
        {
          "internalType": "address",
          "name": "newOwner",
          "type": "address"
        }
      ],
      "name": "transferOwnership",
      "outputs": [],
      "stateMutability": "nonpayable",
      "type": "function"
    },
    {
      "inputs": [],
      "name": "verifier",
      "outputs": [
        {
          "internalType": "address",
          "name": "",
          "type": "address"
        }
      ],
      "stateMutability": "view",
      "type": "function"
    }
  ],
  "bytecode": "0x6080346100a757601f6105d038819003918201601f19168301916001600160401b038311848410176100ac578084926020946040528339810103126100a757516001600160a01b0390818116908190036100a75760005460018060a01b0319903382821617600055604051933391167f8be0079c531659141344cd1fd0a4f28419497f9722a3daafe3b4186f6b6457e0600080a3600254161760025561050d90816100c38239f35b600080fd5b634e487b7160e01b600052604160045260246000fdfe608060408181526004918236101561001657600080fd5b600092833560e01c9182632b7ac3f31461045a57508163715018a6146103fd57816385c114e3146101b35781638da5cb5b1461018b5781638ea8303114610162578163f2fde38b14610090575063ffa1ad741461007257600080fd5b3461008c578160031936011261008c576020905160018152f35b5080fd5b9190503461015e57602036600319011261015e576001600160a01b03823581811693919290849003610159576100c461047f565b83156101075750506000548260018060a01b0319821617600055167f8be0079c531659141344cd1fd0a4f28419497f9722a3daafe3b4186f6b6457e0600080a380f35b906020608492519162461bcd60e51b8352820152602660248201527f4f776e61626c653a206e6577206f776e657220697320746865207a65726f206160448201526564647265737360d01b6064820152fd5b600080fd5b8280fd5b50503461008c578160031936011261008c5760025490516001600160a01b039091168152602090f35b50503461008c578160031936011261008c57905490516001600160a01b039091168152602090f35b9050608036600319011261015e5760249081359267ffffffffffffffff928385116103f957366023860112156103f95784830135908482116103f557368183880101116103f5576001600160a01b03604435818116969193899188810361015e5760643599868b16809b036103f1578386918482958b51948593018337810182815203925af1923d156103e9573d938285116103d757855194601f19603f81601f84011601168601868110858211176103c557875285523d8a602087013e5b15610368578890858580518101031261008c5760208501519481861680960361015e5786015190858a036102d3575b828a8a7f0e5a3c988fad106b7b861737afb4506005b622de8edd2cdd99e11ca1c7c4de9660208c8c519384523592a380f35b6002541694853b1561015e576064908388519788948593630df791e560e41b85528c8501528d8985015260448401525af1801561035e57610317575b8781806102a1565b829793971161034d57508552938160207f0e5a3c988fad106b7b861737afb4506005b622de8edd2cdd99e11ca1c7c4de9661030f565b634e487b7160e01b83526041845282fd5b84513d8a823e3d90fd5b845162461bcd60e51b81526020818801526032818501527f504f533a206661696c656420746f207265717565737420617070726f766520666044820152711c9bdb481d985d5b1d0818dbdb9d1c9858dd60721b6064820152608490fd5b634e487b7160e01b8c5260418952858cfd5b634e487b7160e01b8a5260418752838afd5b606093610272565b8380fd5b8680fd5b8580fd5b833461045757806003193601126104575761041661047f565b80546001600160a01b03198116825581906001600160a01b03167f8be0079c531659141344cd1fd0a4f28419497f9722a3daafe3b4186f6b6457e08280a380f35b80fd5b84903461008c578160031936011261008c576001546001600160a01b03168152602090f35b6000546001600160a01b0316330361049357565b606460405162461bcd60e51b815260206004820152602060248201527f4f776e61626c653a2063616c6c6572206973206e6f7420746865206f776e65726044820152fdfea26469706673582212207d60c827661ea8d462e726f23ff8b80cfa23e581f89cf6fa8ecf0c558e4e005464736f6c63430008120033",
  "linkReferences": {},
  "deployedLinkReferences": {}
}