{
  "_format": "hh-sol-artifact-1",
  "contractName": "VaultContract",
  "sourceName": "contracts/VaultContract.sol",
  "abi": [
    {
      "inputs": [
        {
          "internalType": "address",
          "name": "_verifier",
          "type": "address"
        }
      ],
      "stateMutability": "nonpayable",
      "type": "constructor"
    },
    {
      "anonymous": false,
      "inputs": [
        {
          "indexed": true,
          "internalType": "address",
          "name": "user",
          "type": "address"
        },
        {
          "indexed": true,
          "internalType": "address",
          "name": "token",
          "type": "address"
        },
        {
          "indexed": false,
          "internalType": "uint256",
          "name": "amount",
          "type": "uint256"
        }
      ],
      "name": "Deposit",
      "type": "event"
    },
    {
      "anonymous": false,
      "inputs": [
        {
          "indexed": true,
          "internalType": "address",
          "name": "user",
          "type": "address"
        },
        {
          "indexed": true,
          "internalType": "address",
          "name": "token",
          "type": "address"
        },
        {
          "indexed": false,
          "internalType": "uint256",
          "name": "limit",
          "type": "uint256"
        }
      ],
      "name": "LimitSet",
      "type": "event"
    },
    {
      "anonymous": false,
      "inputs": [
        {
          "indexed": true,
          "internalType": "address",
          "name": "previousOwner",
          "type": "address"
        },
        {
          "indexed": true,
          "internalType": "address",
          "name": "newOwner",
          "type": "address"
        }
      ],
      "name": "OwnershipTransferred",
      "type": "event"
    },
    {
      "anonymous": false,
      "inputs": [
        {
          "indexed": true,
          "internalType": "uint256",
          "name": "_sessionId",
          "type": "uint256"
        },
        {
          "indexed": true,
          "internalType": "address",
          "name": "_pos",
          "type": "address"
        },
        {
          "indexed": false,
          "internalType": "address",
          "name": "_token",
          "type": "address"
        },
        {
          "indexed": false,
          "internalType": "uint256",
          "name": "_amount",
          "type": "uint256"
        },
        {
          "indexed": false,
          "internalType": "uint256",
          "name": "_deadline",
          "type": "uint256"
        },
        {
          "indexed": false,
          "internalType": "address",
          "name": "_payer",
          "type": "address"
        }
      ],
      "name": "Payment",
      "type": "event"
    },
    {
      "anonymous": false,
      "inputs": [
        {
          "indexed": false,
          "internalType": "address",
          "name": "oldAddress",
          "type": "address"
        },
        {
          "indexed": false,
          "internalType": "address",
          "name": "newAddress",
          "type": "address"
        }
      ],
      "name": "VerifierAddressChanged",
      "type": "event"
    },
    {
      "anonymous": false,
      "inputs": [
        {
          "indexed": true,
          "internalType": "address",
          "name": "user",
          "type": "address"
        },
        {
          "indexed": true,
          "internalType": "address",
          "name": "token",
          "type": "address"
        },
        {
          "indexed": false,
          "internalType": "uint256",
          "name": "amount",
          "type": "uint256"
        }
      ],
      "name": "Withdrawal",
      "type": "event"
    },
    {
      "inputs": [],
      "name": "VERSION",
      "outputs": [
        {
          "internalType": "uint256",
          "name": "",
          "type": "uint256"
        }
      ],
      "stateMutability": "view",
      "type": "function"
    },
    {
      "inputs": [
        {
          "internalType": "contract IERC20",
          "name": "token",
          "type": "address"
        },
        {
          "internalType": "uint256",
          "name": "amount",
          "type": "uint256"
        }
      ],
      "name": "deposit",
      "outputs": [],
      "stateMutability": "payable",
      "type": "function"
    },
    {
      "inputs": [],
      "name": "owner",
      "outputs": [
        {
          "internalType": "address",
          "name": "",
          "type": "address"
        }
      ],
      "stateMutability": "view",
      "type": "function"
    },
    {
      "inputs": [
        {
          "internalType": "uint256",
          "name": "sessionId",
          "type": "uint256"
        },
        {
          "internalType": "address",
          "name": "pos",
          "type": "address"
        },
        {
          "internalType": "address",
          "name": "payer",
          "type": "address"
        },
        {
          "internalType": "address",
          "name": "token",
          "type": "address"
        },
        {
          "internalType": "bool",
          "name": "exceededLimit",
          "type": "bool"
        },
        {
          "internalType": "uint256",
          "name": "amount",
          "type": "uint256"
        },
        {
          "internalType": "uint256",
          "name": "deadline",
          "type": "uint256"
        },
        {
          "internalType": "bytes",
          "name": "signature",
          "type": "bytes"
        }
      ],
      "name": "pay",
      "outputs": [
        {
          "internalType": "address",
          "name": "",
          "type": "address"
        },
        {
          "internalType": "uint256",
          "name": "",
          "type": "uint256"
        }
      ],
      "stateMutability": "payable",
      "type": "function"
    },
    {
      "inputs": [],
      "name": "renounceOwnership",
      "outputs": [],
      "stateMutability": "nonpayable",
      "type": "function"
    },
    {
      "inputs": [
        {
          "internalType": "contract IERC20",
          "name": "token",
          "type": "address"
        },
        {
          "internalType": "uint256",
          "name": "limit",
          "type": "uint256"
        }
      ],
      "name": "setLimit",
      "outputs": [],
      "stateMutability": "nonpayable",
      "type": "function"
    },
    {
      "inputs": [
        {
          "internalType": "address",
          "name": "_verifier",
          "type": "address"
        }
      ],
      "name": "setVerifier",
      "outputs": [],
      "stateMutability": "nonpayable",
      "type": "function"
    },
    {
      "inputs": [
        {
          "internalType": "address",
          "name": "newOwner",
          "type": "address"
        }
      ],
      "name": "transferOwnership",
      "outputs": [],
      "stateMutability": "nonpayable",
      "type": "function"
    },
    {
      "inputs": [
        {
          "internalType": "address",
          "name": "",
          "type": "address"
        },
        {
          "internalType": "address",
          "name": "",
          "type": "address"
        }
      ],
      "name": "userLiquidity",
      "outputs": [
        {
          "internalType": "uint256",
          "name": "balance",
          "type": "uint256"
        },
        {
          "internalType": "uint256",
          "name": "limit",
          "type": "uint256"
        }
      ],
      "stateMutability": "view",
      "type": "function"
    },
    {
      "inputs": [],
      "name": "verifier",
      "outputs": [
        {
          "internalType": "address",
          "name": "",
          "type": "address"
        }
      ],
      "stateMutability": "view",
      "type": "function"
    },
    {
      "inputs": [
        {
          "internalType": "uint256",
          "name": "_sessionId",
          "type": "uint256"
        },
        {
          "internalType": "address",
          "name": "_pos",
          "type": "address"
        },
        {
          "internalType": "address",
          "name": "_sender",
          "type": "address"
        },
        {
          "internalType": "address",
          "name": "_token",
          "type": "address"
        },
        {
          "internalType": "bool",
          "name": "_exceededLimit",
          "type": "bool"
        },
        {
          "internalType": "uint256",
          "name": "_amount",
          "type": "uint256"
        },
        {
          "internalType": "uint256",
          "name": "_deadline",
          "type": "uint256"
        },
        {
          "internalType": "bytes",
          "name": "signature",
          "type": "bytes"
        }
      ],
      "name": "verifyPayment",
      "outputs": [
        {
          "internalType": "bool",
          "name": "",
          "type": "bool"
        }
      ],
      "stateMutability": "view",
      "type": "function"
    },
    {
      "inputs": [
        {
          "internalType": "contract IERC20",
          "name": "token",
          "type": "address"
        },
        {
          "internalType": "uint256",
          "name": "amount",
          "type": "uint256"
        }
      ],
      "name": "withdraw",
      "outputs": [],
      "stateMutability": "nonpayable",
      "type": "function"
    }
  ],
  "bytecode": "0x6080346100ab57601f6112c238819003918201601f19168301916001600160401b038311848410176100b0578084926020946040528339810103126100ab57516001600160a01b0390818116908190036100ab5760005460018060a01b0319903382821617600055604051933391167f8be0079c531659141344cd1fd0a4f28419497f9722a3daafe3b4186f6b6457e0600080a36001805560025416176002556111fb90816100c78239f35b600080fd5b634e487b7160e01b600052604160045260246000fdfe608060408181526004918236101561001657600080fd5b600092833560e01c9182632b7ac3f314610bc65750816336db43b514610b6657816347e7ef241461097e5781635437988d146108765781636a43ec5d1461046c578163715018a6146104125781638da5cb5b146103ea57816398147a0a1461038c578163b6b9bf351461035e578163f2fde38b1461029b578163f3fef3a3146100c7575063ffa1ad74146100a957600080fd5b346100c357816003193601126100c3576020905160018152f35b5080fd5b91905034610297576100d836610beb565b906100e1610dc6565b82516370a0823160e01b815233858201526001600160a01b0391909116926020918281602481885afa908115610215579084918891610262575b50111561021f5783610180578293946101557f2717ead6b9200dd235aad468c9809ea400fe33ac69b5bfaa6d3e90fc922b63989433610e1c565b85875282528086203387528252808620610170858254610da3565b9055519283523392a36001805580f35b80516323b872dd60e01b8152308682019081523360208201526040810185905290959083908790819060600103818a895af1958615610215577f2717ead6b9200dd235aad468c9809ea400fe33ac69b5bfaa6d3e90fc922b63989495966101e8575b50610155565b61020790843d861161020e575b6101ff8183610c2c565b810190610d8b565b50386101e2565b503d6101f5565b82513d89823e3d90fd5b5162461bcd60e51b815280850191909152601c60248201527f4e6f7420656e6f7567682066756e647320746f207769746864726177000000006044820152606490fd5b809250848092503d8311610290575b61027b8183610c2c565b8101031261028c578390513861011b565b8680fd5b503d610271565b8280fd5b905034610297576020366003190112610297576102b6610c16565b906102bf610d33565b6001600160a01b0391821692831561030c57505082546001600160a01b0319811683178455167f8be0079c531659141344cd1fd0a4f28419497f9722a3daafe3b4186f6b6457e08380a380f35b906020608492519162461bcd60e51b8352820152602660248201527f4f776e61626c653a206e6577206f776e657220697320746865207a65726f206160448201526564647265737360d01b6064820152fd5b5050346100c35760209061038361037436610c80565b96959095949194939293610f19565b90519015158152f35b8284346103e757816003193601126103e7576103a6610c16565b926024356001600160a01b0381811692918390036103e3578495168352602052828220908252602052206001815491015482519182526020820152f35b8380fd5b80fd5b5050346100c357816003193601126100c357905490516001600160a01b039091168152602090f35b83346103e757806003193601126103e75761042b610d33565b80546001600160a01b03198116825581906001600160a01b03167f8be0079c531659141344cd1fd0a4f28419497f9722a3daafe3b4186f6b6457e08280a380f35b90508261047836610c80565b9996949397919861048b96919396610dc6565b87519a80518c855b828110610861575060ff9181016003815260209e8f9103019020541615908161084a575b5015610813576001600160a01b03828116979092903389036107d6574286111561079f57908c949392911561072e575b6024838c169d8e8c51928380926370a0823160e01b825230888301525afa90811561072457908d9186916106ef575b5010610696578c6105ef57508a34036105bc5799809b93897f2d046a3bbac989cd9f233c0e3df4a9d808c00e7f98b5ab2da5d74060af9db0f19794608097946105b89d9e610564868e610e1c565b8883528452828220961695868252835220610580838254610da3565b90558951948552840152878301526060820152a360018055516001600160a01b03909216825260208201929092529081906040820190565b0390f35b885162461bcd60e51b8152908101849052600d60248201526c496e76616c696420707269636560981b6044820152606490fd5b895163a9059cbb60e01b81526001600160a01b03909116828201908152602081018d9052939c96959493849082908f908290819060400103918b5af1801561068c578c9d7f2d046a3bbac989cd9f233c0e3df4a9d808c00e7f98b5ab2da5d74060af9db0f19896946105b89d9e9460809997948e9461066f575b50610564565b61068590863d881161020e576101ff8183610c2c565b5038610669565b8a513d8f823e3d90fd5b895162461bcd60e51b8152808301869052602d60248201527f596f7520646f206e6f74206861766520656e6f7567682066756e647320666f7260448201526c081d1a1a5cc81c185e5b595b9d609a1b6064820152608490fd5b809250878092503d831161071d575b6107088183610c2c565b81010312610719578c90518f610516565b8480fd5b503d6106fe565b8b513d87823e3d90fd5b9091809394508a168452818c5288842083871685528c52600189852001548b1161075c57908b9392916104e7565b885162461bcd60e51b81528083018d9052601b60248201527f5061796d656e7420616d6f756e7420657863656564206c696d697400000000006044820152606490fd5b895162461bcd60e51b81528084018e90526011602482015270457863656564656420646561646c696e6560781b6044820152606490fd5b895162461bcd60e51b81528084018e9052601760248201527610d85b1b195c881b9bdd081413d4c818dbdb9d1c9858dd604a1b6044820152606490fd5b875162461bcd60e51b81529081018b90526011602482015270496e76616c6964207369676e617475726560781b6044820152606490fd5b61085b9150858c8a8d8a888d610f19565b8c6104b7565b60209181838187010151910152018d90610493565b839150346100c35760203660031901126100c357610892610c16565b9061089b610d33565b6002546001600160a01b0380821692908416919082156109455783831461090b57506001600160a01b0319161760025592516001600160a01b03938416815292166020830152907fd2dd85682aa0e840c5ef1783f4dcf6a6821fe7cab63f7099956f5f742934c54490604090a180f35b606490602088519162461bcd60e51b835282015260146024820152731d995c9a599a595c881859191c995cdcc81cd95d60621b6044820152fd5b606490602088519162461bcd60e51b8352820152601360248201527253657420746f207a65726f206164647265737360681b6044820152fd5b91905061098a36610beb565b9190610994610dc6565b6001600160a01b03169283610a4d57823403610a1a576109b48330610e1c565b83855280602052818520338652602052818520805491848301809311610a07575055519081527f5548c837ab068cf56a2c2479df0882a4922fd203edb7517321831d95078c5f6260203392a36001805580f35b634e487b7160e01b875260119052602486fd5b6020606492519162461bcd60e51b8352820152600e60248201526d125b9d985b1a5908185b5bdd5b9d60921b6044820152fd5b8151636eb1769f60e11b8152338282019081523060208281019190915291908290829081906040010381895afa908115610af0579085918891610b35575b5010610afa5782516323b872dd60e01b8152338382019081523060208201526040810186905282908290819060600103818a8a5af18015610af057610ad2575b50506109b4565b81610ae892903d1061020e576101ff8183610c2c565b503880610acb565b84513d89823e3d90fd5b606492519162461bcd60e51b83528201526018602482015277155cd95c881b5d5cdd08185c1c1c9bdd9948185b5bdd5b9d60421b6044820152fd5b809250838092503d8311610b5f575b610b4e8183610c2c565b8101031261028c5784905138610a8b565b503d610b44565b9190503461029757610b7736610beb565b919060018060a01b0316928385526020528084203385526020528160018286200155519081527f8aa6856e3197c997992720c057a925dff13f6893a75f1a7228a2d4eafe117b8460203392a380f35b8490346100c357816003193601126100c3576002546001600160a01b03168152602090f35b6040906003190112610c11576004356001600160a01b0381168103610c11579060243590565b600080fd5b600435906001600160a01b0382168203610c1157565b90601f8019910116810190811067ffffffffffffffff821117610c4e57604052565b634e487b7160e01b600052604160045260246000fd5b67ffffffffffffffff8111610c4e57601f01601f191660200190565b610100600319820112610c1157600435916001600160a01b03906024358281168103610c1157926044358381168103610c1157926064359081168103610c1157916084358015158103610c11579160a4359160c4359160e43567ffffffffffffffff8111610c115781602382011215610c1157806004013590610d0282610c64565b92610d106040519485610c2c565b82845260248383010111610c115781600092602460209301838601378301015290565b6000546001600160a01b03163303610d4757565b606460405162461bcd60e51b815260206004820152602060248201527f4f776e61626c653a2063616c6c6572206973206e6f7420746865206f776e65726044820152fd5b90816020910312610c1157518015158103610c115790565b91908203918211610db057565b634e487b7160e01b600052601160045260246000fd5b600260015414610dd7576002600155565b60405162461bcd60e51b815260206004820152601f60248201527f5265656e7472616e637947756172643a207265656e7472616e742063616c6c006044820152606490fd5b814710610ed4576000918291829182916001600160a01b03165af13d15610ecf573d610e4781610c64565b90610e556040519283610c2c565b8152600060203d92013e5b15610e6757565b60405162461bcd60e51b815260206004820152603a60248201527f416464726573733a20756e61626c6520746f2073656e642076616c75652c20726044820152791958da5c1a595b9d081b585e481a185d99481c995d995c9d195960321b6064820152608490fd5b610e60565b60405162461bcd60e51b815260206004820152601d60248201527f416464726573733a20696e73756666696369656e742062616c616e63650000006044820152606490fd5b9491959296939060405197602089019646885260408a015260018060a01b0380988180941660608c01521660808a01521660a0880152151560c087015260e08601526101009081860152845261012084019367ffffffffffffffff9281861084871117610c4e57610180908660405282519020916101408101927f19457468657265756d205369676e6564204d6573736167653a0a333200000000845261015c820152603c8752019285841090841117610c4e57610fe894610fe093604052519020611108565b929092610ff3565b806002541691161490565b60058110156110f257806110045750565b6001810361104c5760405162461bcd60e51b815260206004820152601860248201527745434453413a20696e76616c6964207369676e617475726560401b6044820152606490fd5b600281036110995760405162461bcd60e51b815260206004820152601f60248201527f45434453413a20696e76616c6964207369676e6174757265206c656e677468006044820152606490fd5b6003146110a257565b60405162461bcd60e51b815260206004820152602260248201527f45434453413a20696e76616c6964207369676e6174757265202773272076616c604482015261756560f01b6064820152608490fd5b634e487b7160e01b600052602160045260246000fd5b90604181511460001461113657611132916020820151906060604084015193015160001a90611140565b9091565b5050600090600290565b9291906fa2a8918ca85bafe22016d0b997e4df60600160ff1b0383116111b95791608094939160ff602094604051948552168484015260408301526060820152600093849182805260015afa156111ac5781516001600160a01b038116156111a6579190565b50600190565b50604051903d90823e3d90fd5b5050505060009060039056fea2646970667358221220305c7242dfcf9eb5d0175c4449e51ad7e5f2e09e31172e1ddf227b30ee9e327864736f6c63430008120033",
  "linkReferences": {},
  "deployedLinkReferences": {}
}