{
  "_format": "hh-sol-artifact-1",
  "contractName": "Swap",
  "sourceName": "contracts/Swap.sol",
  "abi": [
    {
      "inputs": [
        {
          "internalType": "address",
          "name": "_tokenIn",
          "type": "address"
        },
        {
          "internalType": "address",
          "name": "_tokenOut",
          "type": "address"
        }
      ],
      "stateMutability": "nonpayable",
      "type": "constructor"
    },
    {
      "inputs": [
        {
          "internalType": "address",
          "name": "_tokenIn",
          "type": "address"
        },
        {
          "internalType": "address",
          "name": "_tokenOut",
          "type": "address"
        },
        {
          "internalType": "uint256",
          "name": "amountIn",
          "type": "uint256"
        }
      ],
      "name": "swap",
      "outputs": [],
      "stateMutability": "nonpayable",
      "type": "function"
    },
    {
      "inputs": [],
      "name": "tokenIn",
      "outputs": [
        {
          "internalType": "address",
          "name": "",
          "type": "address"
        }
      ],
      "stateMutability": "view",
      "type": "function"
    },
    {
      "inputs": [],
      "name": "tokenOut",
      "outputs": [
        {
          "internalType": "address",
          "name": "",
          "type": "address"
        }
      ],
      "stateMutability": "view",
      "type": "function"
    }
  ],
  "bytecode": "0x60803461008d57601f6103ab38819003918201601f19168301916001600160401b0383118484101761009257808492604094855283398101031261008d57610052602061004b836100a8565b92016100a8565b600280546001600160a01b039384166001600160a01b031991821617909155600380549290931691161790556040516102ee90816100bd8239f35b600080fd5b634e487b7160e01b600052604160045260246000fd5b51906001600160a01b038216820361008d5756fe608060408181526004908136101561001657600080fd5b600092833560e01c9081636daf390b1461023e57508063d0202d3b146102115763df791e501461004557600080fd5b3461020d57606036600319011261020d5781356001600160a01b038181169391849003610209576024359081168091036102095782516370a0823160e01b8152308184015260209460443593918681602481875afa9081156101ff5790859189916101ca575b501061019057845163a9059cbb60e01b80825230848301908152602081018790528993919291899183919082908790829060400103925af1801561018657918895939161011f98979593610169575b5086519081523392810192835260208301949094529295869384929091839160400190565b03925af19081156101605750610133578280f35b8161015292903d10610159575b61014a8183610263565b81019061029b565b5038808280f35b503d610140565b513d85823e3d90fd5b61017f90873d89116101595761014a8183610263565b50386100fa565b87513d85823e3d90fd5b845162461bcd60e51b815280830187905260146024820152734e6f7420656e6f756768206c697175696469747960601b6044820152606490fd5b809250888092503d83116101f8575b6101e38183610263565b810103126101f457849051386100ab565b8780fd5b503d6101d9565b86513d8a823e3d90fd5b8480fd5b8280fd5b83823461023a578160031936011261023a5760035490516001600160a01b039091168152602090f35b5080fd5b84903461023a578160031936011261023a576002546001600160a01b03168152602090f35b90601f8019910116810190811067ffffffffffffffff82111761028557604052565b634e487b7160e01b600052604160045260246000fd5b908160209103126102b3575180151581036102b35790565b600080fdfea264697066735822122068bf237fc69f333ea3b7c8b66f71fbbbd05a7e7eb5d863898270433cee94f3b464736f6c63430008120033",
  "linkReferences": {},
  "deployedLinkReferences": {}
}